{
  "contractName": "AdderallStaking",
  "abi": [
    {
      "inputs": [
        {
          "internalType": "address",
          "name": "_adderallToken",
          "type": "address"
        }
      ],
      "stateMutability": "nonpayable",
      "type": "constructor"
    },
    {
      "anonymous": false,
      "inputs": [
        {
          "indexed": false,
          "internalType": "uint256",
          "name": "newK",
          "type": "uint256"
        }
      ],
      "name": "DecayFactorUpdated",
      "type": "event"
    },
    {
      "anonymous": false,
      "inputs": [
        {
          "indexed": false,
          "internalType": "uint256",
          "name": "newLockupPeriod",
          "type": "uint256"
        }
      ],
      "name": "LockupPeriodUpdated",
      "type": "event"
    },
    {
      "anonymous": false,
      "inputs": [
        {
          "indexed": true,
          "internalType": "address",
          "name": "user",
          "type": "address"
        },
        {
          "indexed": false,
          "internalType": "uint256",
          "name": "reward",
          "type": "uint256"
        }
      ],
      "name": "RewardClaimed",
      "type": "event"
    },
    {
      "anonymous": false,
      "inputs": [
        {
          "indexed": true,
          "internalType": "address",
          "name": "user",
          "type": "address"
        },
        {
          "indexed": false,
          "internalType": "uint256",
          "name": "amount",
          "type": "uint256"
        }
      ],
      "name": "Staked",
      "type": "event"
    },
    {
      "anonymous": false,
      "inputs": [
        {
          "indexed": true,
          "internalType": "address",
          "name": "user",
          "type": "address"
        },
        {
          "indexed": false,
          "internalType": "uint256",
          "name": "amount",
          "type": "uint256"
        }
      ],
      "name": "Unstaked",
      "type": "event"
    },
    {
      "inputs": [],
      "name": "adderallToken",
      "outputs": [
        {
          "internalType": "contract AdderallToken",
          "name": "",
          "type": "address"
        }
      ],
      "stateMutability": "view",
      "type": "function",
      "constant": true
    },
    {
      "inputs": [],
      "name": "k",
      "outputs": [
        {
          "internalType": "uint256",
          "name": "",
          "type": "uint256"
        }
      ],
      "stateMutability": "view",
      "type": "function",
      "constant": true
    },
    {
      "inputs": [],
      "name": "lastUpdateTime",
      "outputs": [
        {
          "internalType": "uint256",
          "name": "",
          "type": "uint256"
        }
      ],
      "stateMutability": "view",
      "type": "function",
      "constant": true
    },
    {
      "inputs": [],
      "name": "lockupPeriod",
      "outputs": [
        {
          "internalType": "uint256",
          "name": "",
          "type": "uint256"
        }
      ],
      "stateMutability": "view",
      "type": "function",
      "constant": true
    },
    {
      "inputs": [],
      "name": "owner",
      "outputs": [
        {
          "internalType": "address",
          "name": "",
          "type": "address"
        }
      ],
      "stateMutability": "view",
      "type": "function",
      "constant": true
    },
    {
      "inputs": [],
      "name": "rewardPerTokenStored",
      "outputs": [
        {
          "internalType": "uint256",
          "name": "",
          "type": "uint256"
        }
      ],
      "stateMutability": "view",
      "type": "function",
      "constant": true
    },
    {
      "inputs": [
        {
          "internalType": "address",
          "name": "",
          "type": "address"
        }
      ],
      "name": "stakers",
      "outputs": [
        {
          "internalType": "uint256",
          "name": "stakedAmount",
          "type": "uint256"
        },
        {
          "internalType": "uint256",
          "name": "lastUpdated",
          "type": "uint256"
        },
        {
          "internalType": "uint256",
          "name": "reward",
          "type": "uint256"
        },
        {
          "internalType": "uint256",
          "name": "lastTotalRewardsPoolAtUpdate",
          "type": "uint256"
        },
        {
          "internalType": "uint256",
          "name": "lockupEndTime",
          "type": "uint256"
        }
      ],
      "stateMutability": "view",
      "type": "function",
      "constant": true
    },
    {
      "inputs": [],
      "name": "totalRewardsPool",
      "outputs": [
        {
          "internalType": "uint256",
          "name": "",
          "type": "uint256"
        }
      ],
      "stateMutability": "view",
      "type": "function",
      "constant": true
    },
    {
      "inputs": [],
      "name": "totalStaked",
      "outputs": [
        {
          "internalType": "uint256",
          "name": "",
          "type": "uint256"
        }
      ],
      "stateMutability": "view",
      "type": "function",
      "constant": true
    },
    {
      "inputs": [
        {
          "internalType": "uint256",
          "name": "newK",
          "type": "uint256"
        }
      ],
      "name": "setDecayFactor",
      "outputs": [],
      "stateMutability": "nonpayable",
      "type": "function"
    },
    {
      "inputs": [
        {
          "internalType": "uint256",
          "name": "_newLockupPeriod",
          "type": "uint256"
        }
      ],
      "name": "setLockupPeriod",
      "outputs": [],
      "stateMutability": "nonpayable",
      "type": "function"
    },
    {
      "inputs": [],
      "name": "getCurrentRewardRate",
      "outputs": [
        {
          "internalType": "uint256",
          "name": "",
          "type": "uint256"
        }
      ],
      "stateMutability": "view",
      "type": "function",
      "constant": true
    },
    {
      "inputs": [],
      "name": "rewardPerToken",
      "outputs": [
        {
          "internalType": "uint256",
          "name": "",
          "type": "uint256"
        }
      ],
      "stateMutability": "view",
      "type": "function",
      "constant": true
    },
    {
      "inputs": [
        {
          "internalType": "uint256",
          "name": "_amount",
          "type": "uint256"
        }
      ],
      "name": "stakeTokens",
      "outputs": [],
      "stateMutability": "nonpayable",
      "type": "function"
    },
    {
      "inputs": [
        {
          "internalType": "uint256",
          "name": "_amount",
          "type": "uint256"
        }
      ],
      "name": "unstakeTokens",
      "outputs": [],
      "stateMutability": "nonpayable",
      "type": "function"
    },
    {
      "inputs": [],
      "name": "claimReward",
      "outputs": [],
      "stateMutability": "nonpayable",
      "type": "function"
    },
    {
      "inputs": [
        {
          "internalType": "address",
          "name": "_user",
          "type": "address"
        }
      ],
      "name": "updateReward",
      "outputs": [],
      "stateMutability": "nonpayable",
      "type": "function"
    },
    {
      "inputs": [
        {
          "internalType": "uint256",
          "name": "_amount",
          "type": "uint256"
        }
      ],
      "name": "addRewardsToPool",
      "outputs": [],
      "stateMutability": "nonpayable",
      "type": "function"
    }
  ],
  "bytecode": "0x60806040526103e8600255600060055560006006553480156200002157600080fd5b5060405162001710380380620017108339818101604052810190620000479190620000e6565b806000806101000a81548173ffffffffffffffffffffffffffffffffffffffff021916908373ffffffffffffffffffffffffffffffffffffffff16021790555033600160006101000a81548173ffffffffffffffffffffffffffffffffffffffff021916908373ffffffffffffffffffffffffffffffffffffffff1602179055505062000160565b600081519050620000e08162000146565b92915050565b600060208284031215620000f957600080fd5b60006200010984828501620000cf565b91505092915050565b60006200011f8262000126565b9050919050565b600073ffffffffffffffffffffffffffffffffffffffff82169050919050565b620001518162000112565b81146200015d57600080fd5b50565b6115a080620001706000396000f3fe608060405234801561001057600080fd5b50600436106101165760003560e01c8063b88a802f116100a2578063c8f33c9111610071578063c8f33c9114610297578063cd3daf9d146102b5578063df136d65146102d3578063e6a4a8b5146102f1578063ee947a7c1461030f57610116565b8063b88a802f14610239578063b8c9059d14610243578063bb2cecb11461025f578063c771c3901461027b57610116565b8063817b1cd2116100e9578063817b1cd21461018d57806387c9ad78146101ab5780638da5cb5b146101c95780639168ae72146101e7578063b4f40c611461021b57610116565b80632ef3ff6f1461011b578063608e4dd014610139578063632447c9146101555780637547c7a314610171575b600080fd5b61012361032d565b60405161013091906112c7565b60405180910390f35b610153600480360381019061014e9190610f03565b610333565b005b61016f600480360381019061016a9190610eb1565b61057f565b005b61018b60048036038101906101869190610f03565b61063f565b005b610195610815565b6040516101a291906112c7565b60405180910390f35b6101b361081b565b6040516101c091906111ec565b60405180910390f35b6101d161083f565b6040516101de9190611171565b60405180910390f35b61020160048036038101906101fc9190610eb1565b610865565b6040516102129594939291906112e2565b60405180910390f35b61022361089b565b60405161023091906112c7565b60405180910390f35b6102416108a1565b005b61025d60048036038101906102589190610f03565b610ad4565b005b61027960048036038101906102749190610f03565b610bea565b005b61029560048036038101906102909190610f03565b610cf4565b005b61029f610dc5565b6040516102ac91906112c7565b60405180910390f35b6102bd610dcb565b6040516102ca91906112c7565b60405180910390f35b6102db610e34565b6040516102e891906112c7565b60405180910390f35b6102f9610e3a565b60405161030691906112c7565b60405180910390f35b610317610e6c565b60405161032491906112c7565b60405180910390f35b60045481565b6000600860003373ffffffffffffffffffffffffffffffffffffffff1673ffffffffffffffffffffffffffffffffffffffff168152602001908152602001600020905061037f3361057f565b80600401544210156103c6576040517f08c379a00000000000000000000000000000000000000000000000000000000081526004016103bd90611287565b60405180910390fd5b818160000154101561040d576040517f08c379a0000000000000000000000000000000000000000000000000000000008152600401610404906112a7565b60405180910390fd5b818160000160008282546104219190611427565b92505081905550816003600082825461043a9190611427565b9250508190555060008054906101000a900473ffffffffffffffffffffffffffffffffffffffff1673ffffffffffffffffffffffffffffffffffffffff1663a9059cbb33846040518363ffffffff1660e01b815260040161049c9291906111c3565b602060405180830381600087803b1580156104b657600080fd5b505af11580156104ca573d6000803e3d6000fd5b505050506040513d601f19601f820116820180604052508101906104ee9190610eda565b61052d576040517f08c379a000000000000000000000000000000000000000000000000000000000815260040161052490611247565b60405180910390fd5b3373ffffffffffffffffffffffffffffffffffffffff167f0f5bb82176feb1b5e747e28471aa92156a04d9f3ab9f45f28e2d704232b93f758360405161057391906112c7565b60405180910390a25050565b6000610589610dcb565b90506000600860008473ffffffffffffffffffffffffffffffffffffffff1673ffffffffffffffffffffffffffffffffffffffff1681526020019081526020016000209050670de0b6b3a76400008160030154836105e79190611427565b82600001546105f691906113cd565b610600919061139c565b8160020160008282546106139190611346565b925050819055508181600301819055504281600101819055508160068190555042600781905550505050565b6000600860003373ffffffffffffffffffffffffffffffffffffffff1673ffffffffffffffffffffffffffffffffffffffff168152602001908152602001600020905060008054906101000a900473ffffffffffffffffffffffffffffffffffffffff1673ffffffffffffffffffffffffffffffffffffffff166323b872dd3330856040518463ffffffff1660e01b81526004016106df9392919061118c565b602060405180830381600087803b1580156106f957600080fd5b505af115801561070d573d6000803e3d6000fd5b505050506040513d601f19601f820116820180604052508101906107319190610eda565b610770576040517f08c379a000000000000000000000000000000000000000000000000000000000815260040161076790611247565b60405180910390fd5b6107793361057f565b8181600001600082825461078d9190611346565b92505081905550600554426107a29190611346565b816004018190555081600360008282546107bc9190611346565b925050819055503373ffffffffffffffffffffffffffffffffffffffff167f9e71bc8eea02a63969f509818f2dafb9254532904319f9dbda79b67bd34a5f3d8360405161080991906112c7565b60405180910390a25050565b60035481565b60008054906101000a900473ffffffffffffffffffffffffffffffffffffffff1681565b600160009054906101000a900473ffffffffffffffffffffffffffffffffffffffff1681565b60086020528060005260406000206000915090508060000154908060010154908060020154908060030154908060040154905085565b60025481565b6108aa3361057f565b6000600860003373ffffffffffffffffffffffffffffffffffffffff1673ffffffffffffffffffffffffffffffffffffffff168152602001908152602001600020600201549050806004541015610936576040517f08c379a000000000000000000000000000000000000000000000000000000000815260040161092d90611207565b60405180910390fd5b80600460008282546109489190611427565b925050819055506000600860003373ffffffffffffffffffffffffffffffffffffffff1673ffffffffffffffffffffffffffffffffffffffff1681526020019081526020016000206002018190555060008054906101000a900473ffffffffffffffffffffffffffffffffffffffff1673ffffffffffffffffffffffffffffffffffffffff1663a9059cbb33836040518363ffffffff1660e01b81526004016109f29291906111c3565b602060405180830381600087803b158015610a0c57600080fd5b505af1158015610a20573d6000803e3d6000fd5b505050506040513d601f19601f82011682018060405250810190610a449190610eda565b610a83576040517f08c379a0000000000000000000000000000000000000000000000000000000008152600401610a7a90611247565b60405180910390fd5b3373ffffffffffffffffffffffffffffffffffffffff167f106f923f993c2149d49b4255ff723acafa1f2d94393f561d3eda32ae348f724182604051610ac991906112c7565b60405180910390a250565b600160009054906101000a900473ffffffffffffffffffffffffffffffffffffffff1673ffffffffffffffffffffffffffffffffffffffff163373ffffffffffffffffffffffffffffffffffffffff1614610b64576040517f08c379a0000000000000000000000000000000000000000000000000000000008152600401610b5b90611227565b60405180910390fd5b612710811115610ba9576040517f08c379a0000000000000000000000000000000000000000000000000000000008152600401610ba090611267565b60405180910390fd5b806002819055507f020897283b668d79f63f4a336a8d20473f83e97516d34d97db33234af6da821f81604051610bdf91906112c7565b60405180910390a150565b60008054906101000a900473ffffffffffffffffffffffffffffffffffffffff1673ffffffffffffffffffffffffffffffffffffffff166323b872dd3330846040518463ffffffff1660e01b8152600401610c479392919061118c565b602060405180830381600087803b158015610c6157600080fd5b505af1158015610c75573d6000803e3d6000fd5b505050506040513d601f19601f82011682018060405250810190610c999190610eda565b610cd8576040517f08c379a0000000000000000000000000000000000000000000000000000000008152600401610ccf90611247565b60405180910390fd5b8060046000828254610cea9190611346565b9250508190555050565b600160009054906101000a900473ffffffffffffffffffffffffffffffffffffffff1673ffffffffffffffffffffffffffffffffffffffff163373ffffffffffffffffffffffffffffffffffffffff1614610d84576040517f08c379a0000000000000000000000000000000000000000000000000000000008152600401610d7b90611227565b60405180910390fd5b806005819055507fcc67306c5d19f79a73208a1270ca19eb367b4bd5258eac096e974365d18e432c81604051610dba91906112c7565b60405180910390a150565b60075481565b6000806003541415610de1576006549050610e31565b600354670de0b6b3a7640000610df5610e3a565b60075442610e039190611427565b610e0d91906113cd565b610e1791906113cd565b610e21919061139c565b600654610e2e9190611346565b90505b90565b60065481565b600062015180612710610e4d91906113cd565b600254600454610e5d91906113cd565b610e67919061139c565b905090565b60055481565b600081359050610e8181611525565b92915050565b600081519050610e968161153c565b92915050565b600081359050610eab81611553565b92915050565b600060208284031215610ec357600080fd5b6000610ed184828501610e72565b91505092915050565b600060208284031215610eec57600080fd5b6000610efa84828501610e87565b91505092915050565b600060208284031215610f1557600080fd5b6000610f2384828501610e9c565b91505092915050565b610f358161145b565b82525050565b610f44816114a3565b82525050565b6000610f57602c83611335565b91507f52657761726420706f6f6c206973206c657373207468616e207468652072657760008301527f61726420746f20636c61696d00000000000000000000000000000000000000006020830152604082019050919050565b6000610fbd602183611335565b91507f4f6e6c79206f776e65722063616e2063616c6c20746869732066756e6374696f60008301527f6e000000000000000000000000000000000000000000000000000000000000006020830152604082019050919050565b6000611023600f83611335565b91507f5472616e73666572206661696c656400000000000000000000000000000000006000830152602082019050919050565b6000611063602a83611335565b91507f446563617920666163746f722073686f756c64206265206265747765656e203060008301527f20616e64203130303030000000000000000000000000000000000000000000006020830152604082019050919050565b60006110c9601a83611335565b91507f546f6b656e7320617265207374696c6c206c6f636b65642075700000000000006000830152602082019050919050565b6000611109602283611335565b91507f416d6f756e742067726561746572207468616e207374616b65642062616c616e60008301527f63650000000000000000000000000000000000000000000000000000000000006020830152604082019050919050565b61116b81611499565b82525050565b60006020820190506111866000830184610f2c565b92915050565b60006060820190506111a16000830186610f2c565b6111ae6020830185610f2c565b6111bb6040830184611162565b949350505050565b60006040820190506111d86000830185610f2c565b6111e56020830184611162565b9392505050565b60006020820190506112016000830184610f3b565b92915050565b6000602082019050818103600083015261122081610f4a565b9050919050565b6000602082019050818103600083015261124081610fb0565b9050919050565b6000602082019050818103600083015261126081611016565b9050919050565b6000602082019050818103600083015261128081611056565b9050919050565b600060208201905081810360008301526112a0816110bc565b9050919050565b600060208201905081810360008301526112c0816110fc565b9050919050565b60006020820190506112dc6000830184611162565b92915050565b600060a0820190506112f76000830188611162565b6113046020830187611162565b6113116040830186611162565b61131e6060830185611162565b61132b6080830184611162565b9695505050505050565b600082825260208201905092915050565b600061135182611499565b915061135c83611499565b9250827fffffffffffffffffffffffffffffffffffffffffffffffffffffffffffffffff03821115611391576113906114c7565b5b828201905092915050565b60006113a782611499565b91506113b283611499565b9250826113c2576113c16114f6565b5b828204905092915050565b60006113d882611499565b91506113e383611499565b9250817fffffffffffffffffffffffffffffffffffffffffffffffffffffffffffffffff048311821515161561141c5761141b6114c7565b5b828202905092915050565b600061143282611499565b915061143d83611499565b9250828210156114505761144f6114c7565b5b828203905092915050565b600061146682611479565b9050919050565b60008115159050919050565b600073ffffffffffffffffffffffffffffffffffffffff82169050919050565b6000819050919050565b60006114ae826114b5565b9050919050565b60006114c082611479565b9050919050565b7f4e487b7100000000000000000000000000000000000000000000000000000000600052601160045260246000fd5b7f4e487b7100000000000000000000000000000000000000000000000000000000600052601260045260246000fd5b61152e8161145b565b811461153957600080fd5b50565b6115458161146d565b811461155057600080fd5b50565b61155c81611499565b811461156757600080fd5b5056fea2646970667358221220141fc2df0313a9757f9bc5d1603436dc4f5847748639c2a23bdfb521de2f9adf64736f6c63430008000033",
  "immutableReferences": {},
  "source": "// SPDX-License-Identifier: MIT\npragma solidity ^0.8.0;\n\nimport \"./AdderallToken.sol\";\n\ncontract AdderallStaking {\n    AdderallToken public adderallToken;\n\n    address public owner;\n    uint256 public k = 1000; // represents 1/10th or 10%\n    uint256 constant DAY_IN_SECONDS = 86400; // 24 hours * 60 minutes * 60 seconds\n    uint256 public totalStaked;\n    uint256 public totalRewardsPool;\n    uint256 public lockupPeriod = 0 seconds;\n    uint256 public rewardPerTokenStored = 0; // Global accumulated reward per token\n    uint256 public lastUpdateTime; // Global last update timestamp\n\n    struct StakerInfo {\n        uint256 stakedAmount;\n        uint256 lastUpdated;\n        uint256 reward;\n        uint256 lastTotalRewardsPoolAtUpdate;\n        uint256 lockupEndTime;\n    }\n\n    mapping(address => StakerInfo) public stakers;\n\n    event Staked(address indexed user, uint256 amount);\n    event Unstaked(address indexed user, uint256 amount);\n    event RewardClaimed(address indexed user, uint256 reward);\n    event DecayFactorUpdated(uint256 newK);\n    event LockupPeriodUpdated(uint256 newLockupPeriod);\n\n    modifier onlyOwner() {\n        require(msg.sender == owner, \"Only owner can call this function\");\n        _;\n    }\n\n    constructor(address _adderallToken) {\n        adderallToken = AdderallToken(_adderallToken);\n        owner = msg.sender;\n    }\n\n    function setDecayFactor(uint256 newK) external onlyOwner {\n        require(newK <= 10000, \"Decay factor should be between 0 and 10000\");\n        k = newK;\n        emit DecayFactorUpdated(newK);\n    }\n\n    function setLockupPeriod(uint256 _newLockupPeriod) external onlyOwner {\n        lockupPeriod = _newLockupPeriod;\n        emit LockupPeriodUpdated(_newLockupPeriod);\n    }\n\n    function getCurrentRewardRate() public view returns (uint256) {\n        return (totalRewardsPool * k) / (10000 * DAY_IN_SECONDS);\n    }\n\n    function rewardPerToken() public view returns (uint256) {\n        if (totalStaked == 0) {\n            return rewardPerTokenStored;\n        }\n        return\n            rewardPerTokenStored +\n            (((block.timestamp - lastUpdateTime) *\n                getCurrentRewardRate() *\n                1e18) / totalStaked);\n    }\n\n    function stakeTokens(uint256 _amount) public {\n        StakerInfo storage staker = stakers[msg.sender];\n\n        require(\n            adderallToken.transferFrom(msg.sender, address(this), _amount),\n            \"Transfer failed\"\n        );\n\n        updateReward(msg.sender);\n\n        staker.stakedAmount += _amount;\n        staker.lockupEndTime = block.timestamp + lockupPeriod;\n        totalStaked += _amount;\n\n        emit Staked(msg.sender, _amount);\n    }\n\n    function unstakeTokens(uint256 _amount) public {\n        StakerInfo storage staker = stakers[msg.sender];\n\n        updateReward(msg.sender);\n\n        require(\n            block.timestamp >= staker.lockupEndTime,\n            \"Tokens are still locked up\"\n        );\n        require(\n            staker.stakedAmount >= _amount,\n            \"Amount greater than staked balance\"\n        );\n\n        staker.stakedAmount -= _amount;\n        totalStaked -= _amount;\n\n        require(adderallToken.transfer(msg.sender, _amount), \"Transfer failed\");\n        emit Unstaked(msg.sender, _amount);\n    }\n\n    function claimReward() public {\n        updateReward(msg.sender);\n\n        uint256 reward = stakers[msg.sender].reward;\n        require(\n            totalRewardsPool >= reward,\n            \"Reward pool is less than the reward to claim\"\n        );\n\n        totalRewardsPool -= reward;\n        stakers[msg.sender].reward = 0;\n\n        require(adderallToken.transfer(msg.sender, reward), \"Transfer failed\");\n        emit RewardClaimed(msg.sender, reward);\n    }\n\n    function updateReward(address _user) public {\n        uint256 currentRewardPerToken = rewardPerToken();\n        StakerInfo storage staker = stakers[_user];\n\n        staker.reward +=\n            (staker.stakedAmount *\n                (currentRewardPerToken - staker.lastTotalRewardsPoolAtUpdate)) /\n            1e18;\n        staker.lastTotalRewardsPoolAtUpdate = currentRewardPerToken;\n        staker.lastUpdated = block.timestamp;\n\n        rewardPerTokenStored = currentRewardPerToken; // Update the global accumulated reward per token\n        lastUpdateTime = block.timestamp; // Update the global last update timestamp\n    }\n\n    function addRewardsToPool(uint256 _amount) external {\n        require(\n            adderallToken.transferFrom(msg.sender, address(this), _amount),\n            \"Transfer failed\"\n        );\n        totalRewardsPool += _amount;\n    }\n}\n",
  "sourcePath": "/Users/jacobfastpro/Desktop/WorkSpace/Staking/SweetBonanza/contracts/AdderallStaking.sol",
  "compiler": {
    "name": "solc",
    "version": "0.8.0+commit.c7dfd78e.Emscripten.clang"
  },
  "schemaVersion": "3.4.3",
  "updatedAt": "2023-08-27T19:27:19.016Z",
  "networkType": "ethereum",
  "devdoc": {
    "kind": "dev",
    "methods": {},
    "version": 1
  },
  "userdoc": {
    "kind": "user",
    "methods": {},
    "version": 1
  }
}