{
	"data": {
		"bytecode": {
			"linkReferences": {},
			"object": "60806040526103e86002555f6004555f60055534801561001d575f80fd5b50604051610c97380380610c9783398101604081905261003c91610069565b5f80546001600160a01b039092166001600160a01b03199283161790556001805490911633179055610096565b5f60208284031215610079575f80fd5b81516001600160a01b038116811461008f575f80fd5b9392505050565b610bf4806100a35f395ff3fe608060405234801561000f575f80fd5b5060043610610109575f3560e01c8063b4f40c61116100a0578063c8f33c911161006f578063c8f33c9114610280578063cd3daf9d14610289578063df136d6514610291578063e6a4a8b51461029a578063ee947a7c146102a257610109565b8063b4f40c6114610249578063b88a802f14610252578063b8c9059d1461025a578063c771c3901461026d57610109565b80637e2ca288116100dc5780637e2ca288146101b3578063817b1cd2146101c95780638da5cb5b146101d25780639168ae72146101e557610109565b8063608e4dd014610149578063632447c91461015e5780636895179d146101715780637547c7a3146101a0575b60405162461bcd60e51b815260206004820152601060248201526f115512081b9bdd081858d8d95c1d195960821b60448201526064015b60405180910390fd5b61015c610157366004610a64565b6102ab565b005b61015c61016c366004610a7b565b610469565b5f54610183906001600160a01b031681565b6040516001600160a01b0390911681526020015b60405180910390f35b61015c6101ae366004610a64565b6104ef565b6101bb610611565b604051908152602001610197565b6101bb60035481565b600154610183906001600160a01b031681565b6102216101f3366004610a7b565b60076020525f9081526040902080546001820154600283015460038401546004909401549293919290919085565b604080519586526020860194909452928401919091526060830152608082015260a001610197565b6101bb60025481565b61015c610690565b61015c610268366004610a64565b61084e565b61015c61027b366004610a64565b610919565b6101bb60065481565b6101bb610978565b6101bb60055481565b6101bb6109d4565b6101bb60045481565b335f818152600760205260409020906102c390610469565b80600401544210156103175760405162461bcd60e51b815260206004820152601a60248201527f546f6b656e7320617265207374696c6c206c6f636b65642075700000000000006044820152606401610140565b80548211156103735760405162461bcd60e51b815260206004820152602260248201527f416d6f756e742067726561746572207468616e207374616b65642062616c616e604482015261636560f01b6064820152608401610140565b81815f015f8282546103859190610abc565b925050819055508160035f82825461039d9190610abc565b90915550505f5460405163a9059cbb60e01b8152336004820152602481018490526001600160a01b039091169063a9059cbb906044016020604051808303815f875af11580156103ef573d5f803e3d5ffd5b505050506040513d601f19601f820116820180604052508101906104139190610ad5565b61042f5760405162461bcd60e51b815260040161014090610af4565b60405182815233907f0f5bb82176feb1b5e747e28471aa92156a04d9f3ab9f45f28e2d704232b93f75906020015b60405180910390a25050565b5f610472610978565b6001600160a01b0383165f908152600760205260409020600381015491925090670de0b6b3a7640000906104a69084610abc565b82546104b29190610b1d565b6104bc9190610b34565b816002015f8282546104ce9190610b53565b90915550506003810182905542600190910181905560059190915560065550565b335f81815260076020526040808220915490516323b872dd60e01b815260048101939093523060248401526044830184905290916001600160a01b03909116906323b872dd906064016020604051808303815f875af1158015610554573d5f803e3d5ffd5b505050506040513d601f19601f820116820180604052508101906105789190610ad5565b6105945760405162461bcd60e51b815260040161014090610af4565b61059d33610469565b81815f015f8282546105af9190610b53565b90915550506004546105c19042610b53565b81600401819055508160035f8282546105da9190610b53565b909155505060405182815233907f9e71bc8eea02a63969f509818f2dafb9254532904319f9dbda79b67bd34a5f3d9060200161045d565b6003545f80546040516370a0823160e01b81523060048201529192916001600160a01b03909116906370a0823190602401602060405180830381865afa15801561065d573d5f803e3d5ffd5b505050506040513d601f19601f820116820180604052508101906106819190610b66565b61068b9190610abc565b905090565b61069933610469565b335f9081526007602052604080822060020154915490516370a0823160e01b815230600482015282916001600160a01b0316906370a0823190602401602060405180830381865afa1580156106f0573d5f803e3d5ffd5b505050506040513d601f19601f820116820180604052508101906107149190610b66565b10156107755760405162461bcd60e51b815260206004820152602a60248201527f4e6f7420656e6f75676820746f6b656e7320696e2074686520636f6e747261636044820152697420746f20636c61696d60b01b6064820152608401610140565b335f818152600760205260408082206002018290559054905163a9059cbb60e01b81526004810192909252602482018390526001600160a01b03169063a9059cbb906044016020604051808303815f875af11580156107d6573d5f803e3d5ffd5b505050506040513d601f19601f820116820180604052508101906107fa9190610ad5565b6108165760405162461bcd60e51b815260040161014090610af4565b60405181815233907f106f923f993c2149d49b4255ff723acafa1f2d94393f561d3eda32ae348f72419060200160405180910390a250565b6001546001600160a01b031633146108785760405162461bcd60e51b815260040161014090610b7d565b6127108111156108dd5760405162461bcd60e51b815260206004820152602a60248201527f446563617920666163746f722073686f756c64206265206265747765656e2030604482015269020616e642031303030360b41b6064820152608401610140565b60028190556040518181527f020897283b668d79f63f4a336a8d20473f83e97516d34d97db33234af6da821f906020015b60405180910390a150565b6001546001600160a01b031633146109435760405162461bcd60e51b815260040161014090610b7d565b60048190556040518181527fcc67306c5d19f79a73208a1270ca19eb367b4bd5258eac096e974365d18e432c9060200161090e565b5f6003545f03610989575060055490565b6003546109946109d4565b6006546109a19042610abc565b6109ab9190610b1d565b6109bd90670de0b6b3a7640000610b1d565b6109c79190610b34565b60055461068b9190610b53565b5f6109e462015180612710610b1d565b6002545f546040516370a0823160e01b81523060048201526001600160a01b03909116906370a0823190602401602060405180830381865afa158015610a2c573d5f803e3d5ffd5b505050506040513d601f19601f82011682018060405250810190610a509190610b66565b610a5a9190610b1d565b61068b9190610b34565b5f60208284031215610a74575f80fd5b5035919050565b5f60208284031215610a8b575f80fd5b81356001600160a01b0381168114610aa1575f80fd5b9392505050565b634e487b7160e01b5f52601160045260245ffd5b81810381811115610acf57610acf610aa8565b92915050565b5f60208284031215610ae5575f80fd5b81518015158114610aa1575f80fd5b6020808252600f908201526e151c985b9cd9995c8819985a5b1959608a1b604082015260600190565b8082028115828204841417610acf57610acf610aa8565b5f82610b4e57634e487b7160e01b5f52601260045260245ffd5b500490565b80820180821115610acf57610acf610aa8565b5f60208284031215610b76575f80fd5b5051919050565b60208082526021908201527f4f6e6c79206f776e65722063616e2063616c6c20746869732066756e6374696f6040820152603760f91b60608201526080019056fea2646970667358221220fa195a2062a2d99be2fc6b8a810e7cdab01e022077064317b00bcfdbfc8eaadd64736f6c63430008140033",
			"opcodes": "PUSH1 0x80 PUSH1 0x40 MSTORE PUSH2 0x3E8 PUSH1 0x2 SSTORE PUSH0 PUSH1 0x4 SSTORE PUSH0 PUSH1 0x5 SSTORE CALLVALUE DUP1 ISZERO PUSH2 0x1D JUMPI PUSH0 DUP1 REVERT JUMPDEST POP PUSH1 0x40 MLOAD PUSH2 0xC97 CODESIZE SUB DUP1 PUSH2 0xC97 DUP4 CODECOPY DUP2 ADD PUSH1 0x40 DUP2 SWAP1 MSTORE PUSH2 0x3C SWAP2 PUSH2 0x69 JUMP JUMPDEST PUSH0 DUP1 SLOAD PUSH1 0x1 PUSH1 0x1 PUSH1 0xA0 SHL SUB SWAP1 SWAP3 AND PUSH1 0x1 PUSH1 0x1 PUSH1 0xA0 SHL SUB NOT SWAP3 DUP4 AND OR SWAP1 SSTORE PUSH1 0x1 DUP1 SLOAD SWAP1 SWAP2 AND CALLER OR SWAP1 SSTORE PUSH2 0x96 JUMP JUMPDEST PUSH0 PUSH1 0x20 DUP3 DUP5 SUB SLT ISZERO PUSH2 0x79 JUMPI PUSH0 DUP1 REVERT JUMPDEST DUP2 MLOAD PUSH1 0x1 PUSH1 0x1 PUSH1 0xA0 SHL SUB DUP2 AND DUP2 EQ PUSH2 0x8F JUMPI PUSH0 DUP1 REVERT JUMPDEST SWAP4 SWAP3 POP POP POP JUMP JUMPDEST PUSH2 0xBF4 DUP1 PUSH2 0xA3 PUSH0 CODECOPY PUSH0 RETURN INVALID PUSH1 0x80 PUSH1 0x40 MSTORE CALLVALUE DUP1 ISZERO PUSH2 0xF JUMPI PUSH0 DUP1 REVERT JUMPDEST POP PUSH1 0x4 CALLDATASIZE LT PUSH2 0x109 JUMPI PUSH0 CALLDATALOAD PUSH1 0xE0 SHR DUP1 PUSH4 0xB4F40C61 GT PUSH2 0xA0 JUMPI DUP1 PUSH4 0xC8F33C91 GT PUSH2 0x6F JUMPI DUP1 PUSH4 0xC8F33C91 EQ PUSH2 0x280 JUMPI DUP1 PUSH4 0xCD3DAF9D EQ PUSH2 0x289 JUMPI DUP1 PUSH4 0xDF136D65 EQ PUSH2 0x291 JUMPI DUP1 PUSH4 0xE6A4A8B5 EQ PUSH2 0x29A JUMPI DUP1 PUSH4 0xEE947A7C EQ PUSH2 0x2A2 JUMPI PUSH2 0x109 JUMP JUMPDEST DUP1 PUSH4 0xB4F40C61 EQ PUSH2 0x249 JUMPI DUP1 PUSH4 0xB88A802F EQ PUSH2 0x252 JUMPI DUP1 PUSH4 0xB8C9059D EQ PUSH2 0x25A JUMPI DUP1 PUSH4 0xC771C390 EQ PUSH2 0x26D JUMPI PUSH2 0x109 JUMP JUMPDEST DUP1 PUSH4 0x7E2CA288 GT PUSH2 0xDC JUMPI DUP1 PUSH4 0x7E2CA288 EQ PUSH2 0x1B3 JUMPI DUP1 PUSH4 0x817B1CD2 EQ PUSH2 0x1C9 JUMPI DUP1 PUSH4 0x8DA5CB5B EQ PUSH2 0x1D2 JUMPI DUP1 PUSH4 0x9168AE72 EQ PUSH2 0x1E5 JUMPI PUSH2 0x109 JUMP JUMPDEST DUP1 PUSH4 0x608E4DD0 EQ PUSH2 0x149 JUMPI DUP1 PUSH4 0x632447C9 EQ PUSH2 0x15E JUMPI DUP1 PUSH4 0x6895179D EQ PUSH2 0x171 JUMPI DUP1 PUSH4 0x7547C7A3 EQ PUSH2 0x1A0 JUMPI JUMPDEST PUSH1 0x40 MLOAD PUSH3 0x461BCD PUSH1 0xE5 SHL DUP2 MSTORE PUSH1 0x20 PUSH1 0x4 DUP3 ADD MSTORE PUSH1 0x10 PUSH1 0x24 DUP3 ADD MSTORE PUSH16 0x115512081B9BDD081858D8D95C1D1959 PUSH1 0x82 SHL PUSH1 0x44 DUP3 ADD MSTORE PUSH1 0x64 ADD JUMPDEST PUSH1 0x40 MLOAD DUP1 SWAP2 SUB SWAP1 REVERT JUMPDEST PUSH2 0x15C PUSH2 0x157 CALLDATASIZE PUSH1 0x4 PUSH2 0xA64 JUMP JUMPDEST PUSH2 0x2AB JUMP JUMPDEST STOP JUMPDEST PUSH2 0x15C PUSH2 0x16C CALLDATASIZE PUSH1 0x4 PUSH2 0xA7B JUMP JUMPDEST PUSH2 0x469 JUMP JUMPDEST PUSH0 SLOAD PUSH2 0x183 SWAP1 PUSH1 0x1 PUSH1 0x1 PUSH1 0xA0 SHL SUB AND DUP2 JUMP JUMPDEST PUSH1 0x40 MLOAD PUSH1 0x1 PUSH1 0x1 PUSH1 0xA0 SHL SUB SWAP1 SWAP2 AND DUP2 MSTORE PUSH1 0x20 ADD JUMPDEST PUSH1 0x40 MLOAD DUP1 SWAP2 SUB SWAP1 RETURN JUMPDEST PUSH2 0x15C PUSH2 0x1AE CALLDATASIZE PUSH1 0x4 PUSH2 0xA64 JUMP JUMPDEST PUSH2 0x4EF JUMP JUMPDEST PUSH2 0x1BB PUSH2 0x611 JUMP JUMPDEST PUSH1 0x40 MLOAD SWAP1 DUP2 MSTORE PUSH1 0x20 ADD PUSH2 0x197 JUMP JUMPDEST PUSH2 0x1BB PUSH1 0x3 SLOAD DUP2 JUMP JUMPDEST PUSH1 0x1 SLOAD PUSH2 0x183 SWAP1 PUSH1 0x1 PUSH1 0x1 PUSH1 0xA0 SHL SUB AND DUP2 JUMP JUMPDEST PUSH2 0x221 PUSH2 0x1F3 CALLDATASIZE PUSH1 0x4 PUSH2 0xA7B JUMP JUMPDEST PUSH1 0x7 PUSH1 0x20 MSTORE PUSH0 SWAP1 DUP2 MSTORE PUSH1 0x40 SWAP1 KECCAK256 DUP1 SLOAD PUSH1 0x1 DUP3 ADD SLOAD PUSH1 0x2 DUP4 ADD SLOAD PUSH1 0x3 DUP5 ADD SLOAD PUSH1 0x4 SWAP1 SWAP5 ADD SLOAD SWAP3 SWAP4 SWAP2 SWAP3 SWAP1 SWAP2 SWAP1 DUP6 JUMP JUMPDEST PUSH1 0x40 DUP1 MLOAD SWAP6 DUP7 MSTORE PUSH1 0x20 DUP7 ADD SWAP5 SWAP1 SWAP5 MSTORE SWAP3 DUP5 ADD SWAP2 SWAP1 SWAP2 MSTORE PUSH1 0x60 DUP4 ADD MSTORE PUSH1 0x80 DUP3 ADD MSTORE PUSH1 0xA0 ADD PUSH2 0x197 JUMP JUMPDEST PUSH2 0x1BB PUSH1 0x2 SLOAD DUP2 JUMP JUMPDEST PUSH2 0x15C PUSH2 0x690 JUMP JUMPDEST PUSH2 0x15C PUSH2 0x268 CALLDATASIZE PUSH1 0x4 PUSH2 0xA64 JUMP JUMPDEST PUSH2 0x84E JUMP JUMPDEST PUSH2 0x15C PUSH2 0x27B CALLDATASIZE PUSH1 0x4 PUSH2 0xA64 JUMP JUMPDEST PUSH2 0x919 JUMP JUMPDEST PUSH2 0x1BB PUSH1 0x6 SLOAD DUP2 JUMP JUMPDEST PUSH2 0x1BB PUSH2 0x978 JUMP JUMPDEST PUSH2 0x1BB PUSH1 0x5 SLOAD DUP2 JUMP JUMPDEST PUSH2 0x1BB PUSH2 0x9D4 JUMP JUMPDEST PUSH2 0x1BB PUSH1 0x4 SLOAD DUP2 JUMP JUMPDEST CALLER PUSH0 DUP2 DUP2 MSTORE PUSH1 0x7 PUSH1 0x20 MSTORE PUSH1 0x40 SWAP1 KECCAK256 SWAP1 PUSH2 0x2C3 SWAP1 PUSH2 0x469 JUMP JUMPDEST DUP1 PUSH1 0x4 ADD SLOAD TIMESTAMP LT ISZERO PUSH2 0x317 JUMPI PUSH1 0x40 MLOAD PUSH3 0x461BCD PUSH1 0xE5 SHL DUP2 MSTORE PUSH1 0x20 PUSH1 0x4 DUP3 ADD MSTORE PUSH1 0x1A PUSH1 0x24 DUP3 ADD MSTORE PUSH32 0x546F6B656E7320617265207374696C6C206C6F636B6564207570000000000000 PUSH1 0x44 DUP3 ADD MSTORE PUSH1 0x64 ADD PUSH2 0x140 JUMP JUMPDEST DUP1 SLOAD DUP3 GT ISZERO PUSH2 0x373 JUMPI PUSH1 0x40 MLOAD PUSH3 0x461BCD PUSH1 0xE5 SHL DUP2 MSTORE PUSH1 0x20 PUSH1 0x4 DUP3 ADD MSTORE PUSH1 0x22 PUSH1 0x24 DUP3 ADD MSTORE PUSH32 0x416D6F756E742067726561746572207468616E207374616B65642062616C616E PUSH1 0x44 DUP3 ADD MSTORE PUSH2 0x6365 PUSH1 0xF0 SHL PUSH1 0x64 DUP3 ADD MSTORE PUSH1 0x84 ADD PUSH2 0x140 JUMP JUMPDEST DUP2 DUP2 PUSH0 ADD PUSH0 DUP3 DUP3 SLOAD PUSH2 0x385 SWAP2 SWAP1 PUSH2 0xABC JUMP JUMPDEST SWAP3 POP POP DUP2 SWAP1 SSTORE POP DUP2 PUSH1 0x3 PUSH0 DUP3 DUP3 SLOAD PUSH2 0x39D SWAP2 SWAP1 PUSH2 0xABC JUMP JUMPDEST SWAP1 SWAP2 SSTORE POP POP PUSH0 SLOAD PUSH1 0x40 MLOAD PUSH4 0xA9059CBB PUSH1 0xE0 SHL DUP2 MSTORE CALLER PUSH1 0x4 DUP3 ADD MSTORE PUSH1 0x24 DUP2 ADD DUP5 SWAP1 MSTORE PUSH1 0x1 PUSH1 0x1 PUSH1 0xA0 SHL SUB SWAP1 SWAP2 AND SWAP1 PUSH4 0xA9059CBB SWAP1 PUSH1 0x44 ADD PUSH1 0x20 PUSH1 0x40 MLOAD DUP1 DUP4 SUB DUP2 PUSH0 DUP8 GAS CALL ISZERO DUP1 ISZERO PUSH2 0x3EF JUMPI RETURNDATASIZE PUSH0 DUP1 RETURNDATACOPY RETURNDATASIZE PUSH0 REVERT JUMPDEST POP POP POP POP PUSH1 0x40 MLOAD RETURNDATASIZE PUSH1 0x1F NOT PUSH1 0x1F DUP3 ADD AND DUP3 ADD DUP1 PUSH1 0x40 MSTORE POP DUP2 ADD SWAP1 PUSH2 0x413 SWAP2 SWAP1 PUSH2 0xAD5 JUMP JUMPDEST PUSH2 0x42F JUMPI PUSH1 0x40 MLOAD PUSH3 0x461BCD PUSH1 0xE5 SHL DUP2 MSTORE PUSH1 0x4 ADD PUSH2 0x140 SWAP1 PUSH2 0xAF4 JUMP JUMPDEST PUSH1 0x40 MLOAD DUP3 DUP2 MSTORE CALLER SWAP1 PUSH32 0xF5BB82176FEB1B5E747E28471AA92156A04D9F3AB9F45F28E2D704232B93F75 SWAP1 PUSH1 0x20 ADD JUMPDEST PUSH1 0x40 MLOAD DUP1 SWAP2 SUB SWAP1 LOG2 POP POP JUMP JUMPDEST PUSH0 PUSH2 0x472 PUSH2 0x978 JUMP JUMPDEST PUSH1 0x1 PUSH1 0x1 PUSH1 0xA0 SHL SUB DUP4 AND PUSH0 SWAP1 DUP2 MSTORE PUSH1 0x7 PUSH1 0x20 MSTORE PUSH1 0x40 SWAP1 KECCAK256 PUSH1 0x3 DUP2 ADD SLOAD SWAP2 SWAP3 POP SWAP1 PUSH8 0xDE0B6B3A7640000 SWAP1 PUSH2 0x4A6 SWAP1 DUP5 PUSH2 0xABC JUMP JUMPDEST DUP3 SLOAD PUSH2 0x4B2 SWAP2 SWAP1 PUSH2 0xB1D JUMP JUMPDEST PUSH2 0x4BC SWAP2 SWAP1 PUSH2 0xB34 JUMP JUMPDEST DUP2 PUSH1 0x2 ADD PUSH0 DUP3 DUP3 SLOAD PUSH2 0x4CE SWAP2 SWAP1 PUSH2 0xB53 JUMP JUMPDEST SWAP1 SWAP2 SSTORE POP POP PUSH1 0x3 DUP2 ADD DUP3 SWAP1 SSTORE TIMESTAMP PUSH1 0x1 SWAP1 SWAP2 ADD DUP2 SWAP1 SSTORE PUSH1 0x5 SWAP2 SWAP1 SWAP2 SSTORE PUSH1 0x6 SSTORE POP JUMP JUMPDEST CALLER PUSH0 DUP2 DUP2 MSTORE PUSH1 0x7 PUSH1 0x20 MSTORE PUSH1 0x40 DUP1 DUP3 KECCAK256 SWAP2 SLOAD SWAP1 MLOAD PUSH4 0x23B872DD PUSH1 0xE0 SHL DUP2 MSTORE PUSH1 0x4 DUP2 ADD SWAP4 SWAP1 SWAP4 MSTORE ADDRESS PUSH1 0x24 DUP5 ADD MSTORE PUSH1 0x44 DUP4 ADD DUP5 SWAP1 MSTORE SWAP1 SWAP2 PUSH1 0x1 PUSH1 0x1 PUSH1 0xA0 SHL SUB SWAP1 SWAP2 AND SWAP1 PUSH4 0x23B872DD SWAP1 PUSH1 0x64 ADD PUSH1 0x20 PUSH1 0x40 MLOAD DUP1 DUP4 SUB DUP2 PUSH0 DUP8 GAS CALL ISZERO DUP1 ISZERO PUSH2 0x554 JUMPI RETURNDATASIZE PUSH0 DUP1 RETURNDATACOPY RETURNDATASIZE PUSH0 REVERT JUMPDEST POP POP POP POP PUSH1 0x40 MLOAD RETURNDATASIZE PUSH1 0x1F NOT PUSH1 0x1F DUP3 ADD AND DUP3 ADD DUP1 PUSH1 0x40 MSTORE POP DUP2 ADD SWAP1 PUSH2 0x578 SWAP2 SWAP1 PUSH2 0xAD5 JUMP JUMPDEST PUSH2 0x594 JUMPI PUSH1 0x40 MLOAD PUSH3 0x461BCD PUSH1 0xE5 SHL DUP2 MSTORE PUSH1 0x4 ADD PUSH2 0x140 SWAP1 PUSH2 0xAF4 JUMP JUMPDEST PUSH2 0x59D CALLER PUSH2 0x469 JUMP JUMPDEST DUP2 DUP2 PUSH0 ADD PUSH0 DUP3 DUP3 SLOAD PUSH2 0x5AF SWAP2 SWAP1 PUSH2 0xB53 JUMP JUMPDEST SWAP1 SWAP2 SSTORE POP POP PUSH1 0x4 SLOAD PUSH2 0x5C1 SWAP1 TIMESTAMP PUSH2 0xB53 JUMP JUMPDEST DUP2 PUSH1 0x4 ADD DUP2 SWAP1 SSTORE POP DUP2 PUSH1 0x3 PUSH0 DUP3 DUP3 SLOAD PUSH2 0x5DA SWAP2 SWAP1 PUSH2 0xB53 JUMP JUMPDEST SWAP1 SWAP2 SSTORE POP POP PUSH1 0x40 MLOAD DUP3 DUP2 MSTORE CALLER SWAP1 PUSH32 0x9E71BC8EEA02A63969F509818F2DAFB9254532904319F9DBDA79B67BD34A5F3D SWAP1 PUSH1 0x20 ADD PUSH2 0x45D JUMP JUMPDEST PUSH1 0x3 SLOAD PUSH0 DUP1 SLOAD PUSH1 0x40 MLOAD PUSH4 0x70A08231 PUSH1 0xE0 SHL DUP2 MSTORE ADDRESS PUSH1 0x4 DUP3 ADD MSTORE SWAP2 SWAP3 SWAP2 PUSH1 0x1 PUSH1 0x1 PUSH1 0xA0 SHL SUB SWAP1 SWAP2 AND SWAP1 PUSH4 0x70A08231 SWAP1 PUSH1 0x24 ADD PUSH1 0x20 PUSH1 0x40 MLOAD DUP1 DUP4 SUB DUP2 DUP7 GAS STATICCALL ISZERO DUP1 ISZERO PUSH2 0x65D JUMPI RETURNDATASIZE PUSH0 DUP1 RETURNDATACOPY RETURNDATASIZE PUSH0 REVERT JUMPDEST POP POP POP POP PUSH1 0x40 MLOAD RETURNDATASIZE PUSH1 0x1F NOT PUSH1 0x1F DUP3 ADD AND DUP3 ADD DUP1 PUSH1 0x40 MSTORE POP DUP2 ADD SWAP1 PUSH2 0x681 SWAP2 SWAP1 PUSH2 0xB66 JUMP JUMPDEST PUSH2 0x68B SWAP2 SWAP1 PUSH2 0xABC JUMP JUMPDEST SWAP1 POP SWAP1 JUMP JUMPDEST PUSH2 0x699 CALLER PUSH2 0x469 JUMP JUMPDEST CALLER PUSH0 SWAP1 DUP2 MSTORE PUSH1 0x7 PUSH1 0x20 MSTORE PUSH1 0x40 DUP1 DUP3 KECCAK256 PUSH1 0x2 ADD SLOAD SWAP2 SLOAD SWAP1 MLOAD PUSH4 0x70A08231 PUSH1 0xE0 SHL DUP2 MSTORE ADDRESS PUSH1 0x4 DUP3 ADD MSTORE DUP3 SWAP2 PUSH1 0x1 PUSH1 0x1 PUSH1 0xA0 SHL SUB AND SWAP1 PUSH4 0x70A08231 SWAP1 PUSH1 0x24 ADD PUSH1 0x20 PUSH1 0x40 MLOAD DUP1 DUP4 SUB DUP2 DUP7 GAS STATICCALL ISZERO DUP1 ISZERO PUSH2 0x6F0 JUMPI RETURNDATASIZE PUSH0 DUP1 RETURNDATACOPY RETURNDATASIZE PUSH0 REVERT JUMPDEST POP POP POP POP PUSH1 0x40 MLOAD RETURNDATASIZE PUSH1 0x1F NOT PUSH1 0x1F DUP3 ADD AND DUP3 ADD DUP1 PUSH1 0x40 MSTORE POP DUP2 ADD SWAP1 PUSH2 0x714 SWAP2 SWAP1 PUSH2 0xB66 JUMP JUMPDEST LT ISZERO PUSH2 0x775 JUMPI PUSH1 0x40 MLOAD PUSH3 0x461BCD PUSH1 0xE5 SHL DUP2 MSTORE PUSH1 0x20 PUSH1 0x4 DUP3 ADD MSTORE PUSH1 0x2A PUSH1 0x24 DUP3 ADD MSTORE PUSH32 0x4E6F7420656E6F75676820746F6B656E7320696E2074686520636F6E74726163 PUSH1 0x44 DUP3 ADD MSTORE PUSH10 0x7420746F20636C61696D PUSH1 0xB0 SHL PUSH1 0x64 DUP3 ADD MSTORE PUSH1 0x84 ADD PUSH2 0x140 JUMP JUMPDEST CALLER PUSH0 DUP2 DUP2 MSTORE PUSH1 0x7 PUSH1 0x20 MSTORE PUSH1 0x40 DUP1 DUP3 KECCAK256 PUSH1 0x2 ADD DUP3 SWAP1 SSTORE SWAP1 SLOAD SWAP1 MLOAD PUSH4 0xA9059CBB PUSH1 0xE0 SHL DUP2 MSTORE PUSH1 0x4 DUP2 ADD SWAP3 SWAP1 SWAP3 MSTORE PUSH1 0x24 DUP3 ADD DUP4 SWAP1 MSTORE PUSH1 0x1 PUSH1 0x1 PUSH1 0xA0 SHL SUB AND SWAP1 PUSH4 0xA9059CBB SWAP1 PUSH1 0x44 ADD PUSH1 0x20 PUSH1 0x40 MLOAD DUP1 DUP4 SUB DUP2 PUSH0 DUP8 GAS CALL ISZERO DUP1 ISZERO PUSH2 0x7D6 JUMPI RETURNDATASIZE PUSH0 DUP1 RETURNDATACOPY RETURNDATASIZE PUSH0 REVERT JUMPDEST POP POP POP POP PUSH1 0x40 MLOAD RETURNDATASIZE PUSH1 0x1F NOT PUSH1 0x1F DUP3 ADD AND DUP3 ADD DUP1 PUSH1 0x40 MSTORE POP DUP2 ADD SWAP1 PUSH2 0x7FA SWAP2 SWAP1 PUSH2 0xAD5 JUMP JUMPDEST PUSH2 0x816 JUMPI PUSH1 0x40 MLOAD PUSH3 0x461BCD PUSH1 0xE5 SHL DUP2 MSTORE PUSH1 0x4 ADD PUSH2 0x140 SWAP1 PUSH2 0xAF4 JUMP JUMPDEST PUSH1 0x40 MLOAD DUP2 DUP2 MSTORE CALLER SWAP1 PUSH32 0x106F923F993C2149D49B4255FF723ACAFA1F2D94393F561D3EDA32AE348F7241 SWAP1 PUSH1 0x20 ADD PUSH1 0x40 MLOAD DUP1 SWAP2 SUB SWAP1 LOG2 POP JUMP JUMPDEST PUSH1 0x1 SLOAD PUSH1 0x1 PUSH1 0x1 PUSH1 0xA0 SHL SUB AND CALLER EQ PUSH2 0x878 JUMPI PUSH1 0x40 MLOAD PUSH3 0x461BCD PUSH1 0xE5 SHL DUP2 MSTORE PUSH1 0x4 ADD PUSH2 0x140 SWAP1 PUSH2 0xB7D JUMP JUMPDEST PUSH2 0x2710 DUP2 GT ISZERO PUSH2 0x8DD JUMPI PUSH1 0x40 MLOAD PUSH3 0x461BCD PUSH1 0xE5 SHL DUP2 MSTORE PUSH1 0x20 PUSH1 0x4 DUP3 ADD MSTORE PUSH1 0x2A PUSH1 0x24 DUP3 ADD MSTORE PUSH32 0x446563617920666163746F722073686F756C64206265206265747765656E2030 PUSH1 0x44 DUP3 ADD MSTORE PUSH10 0x20616E6420313030303 PUSH1 0xB4 SHL PUSH1 0x64 DUP3 ADD MSTORE PUSH1 0x84 ADD PUSH2 0x140 JUMP JUMPDEST PUSH1 0x2 DUP2 SWAP1 SSTORE PUSH1 0x40 MLOAD DUP2 DUP2 MSTORE PUSH32 0x20897283B668D79F63F4A336A8D20473F83E97516D34D97DB33234AF6DA821F SWAP1 PUSH1 0x20 ADD JUMPDEST PUSH1 0x40 MLOAD DUP1 SWAP2 SUB SWAP1 LOG1 POP JUMP JUMPDEST PUSH1 0x1 SLOAD PUSH1 0x1 PUSH1 0x1 PUSH1 0xA0 SHL SUB AND CALLER EQ PUSH2 0x943 JUMPI PUSH1 0x40 MLOAD PUSH3 0x461BCD PUSH1 0xE5 SHL DUP2 MSTORE PUSH1 0x4 ADD PUSH2 0x140 SWAP1 PUSH2 0xB7D JUMP JUMPDEST PUSH1 0x4 DUP2 SWAP1 SSTORE PUSH1 0x40 MLOAD DUP2 DUP2 MSTORE PUSH32 0xCC67306C5D19F79A73208A1270CA19EB367B4BD5258EAC096E974365D18E432C SWAP1 PUSH1 0x20 ADD PUSH2 0x90E JUMP JUMPDEST PUSH0 PUSH1 0x3 SLOAD PUSH0 SUB PUSH2 0x989 JUMPI POP PUSH1 0x5 SLOAD SWAP1 JUMP JUMPDEST PUSH1 0x3 SLOAD PUSH2 0x994 PUSH2 0x9D4 JUMP JUMPDEST PUSH1 0x6 SLOAD PUSH2 0x9A1 SWAP1 TIMESTAMP PUSH2 0xABC JUMP JUMPDEST PUSH2 0x9AB SWAP2 SWAP1 PUSH2 0xB1D JUMP JUMPDEST PUSH2 0x9BD SWAP1 PUSH8 0xDE0B6B3A7640000 PUSH2 0xB1D JUMP JUMPDEST PUSH2 0x9C7 SWAP2 SWAP1 PUSH2 0xB34 JUMP JUMPDEST PUSH1 0x5 SLOAD PUSH2 0x68B SWAP2 SWAP1 PUSH2 0xB53 JUMP JUMPDEST PUSH0 PUSH2 0x9E4 PUSH3 0x15180 PUSH2 0x2710 PUSH2 0xB1D JUMP JUMPDEST PUSH1 0x2 SLOAD PUSH0 SLOAD PUSH1 0x40 MLOAD PUSH4 0x70A08231 PUSH1 0xE0 SHL DUP2 MSTORE ADDRESS PUSH1 0x4 DUP3 ADD MSTORE PUSH1 0x1 PUSH1 0x1 PUSH1 0xA0 SHL SUB SWAP1 SWAP2 AND SWAP1 PUSH4 0x70A08231 SWAP1 PUSH1 0x24 ADD PUSH1 0x20 PUSH1 0x40 MLOAD DUP1 DUP4 SUB DUP2 DUP7 GAS STATICCALL ISZERO DUP1 ISZERO PUSH2 0xA2C JUMPI RETURNDATASIZE PUSH0 DUP1 RETURNDATACOPY RETURNDATASIZE PUSH0 REVERT JUMPDEST POP POP POP POP PUSH1 0x40 MLOAD RETURNDATASIZE PUSH1 0x1F NOT PUSH1 0x1F DUP3 ADD AND DUP3 ADD DUP1 PUSH1 0x40 MSTORE POP DUP2 ADD SWAP1 PUSH2 0xA50 SWAP2 SWAP1 PUSH2 0xB66 JUMP JUMPDEST PUSH2 0xA5A SWAP2 SWAP1 PUSH2 0xB1D JUMP JUMPDEST PUSH2 0x68B SWAP2 SWAP1 PUSH2 0xB34 JUMP JUMPDEST PUSH0 PUSH1 0x20 DUP3 DUP5 SUB SLT ISZERO PUSH2 0xA74 JUMPI PUSH0 DUP1 REVERT JUMPDEST POP CALLDATALOAD SWAP2 SWAP1 POP JUMP JUMPDEST PUSH0 PUSH1 0x20 DUP3 DUP5 SUB SLT ISZERO PUSH2 0xA8B JUMPI PUSH0 DUP1 REVERT JUMPDEST DUP2 CALLDATALOAD PUSH1 0x1 PUSH1 0x1 PUSH1 0xA0 SHL SUB DUP2 AND DUP2 EQ PUSH2 0xAA1 JUMPI PUSH0 DUP1 REVERT JUMPDEST SWAP4 SWAP3 POP POP POP JUMP JUMPDEST PUSH4 0x4E487B71 PUSH1 0xE0 SHL PUSH0 MSTORE PUSH1 0x11 PUSH1 0x4 MSTORE PUSH1 0x24 PUSH0 REVERT JUMPDEST DUP2 DUP2 SUB DUP2 DUP2 GT ISZERO PUSH2 0xACF JUMPI PUSH2 0xACF PUSH2 0xAA8 JUMP JUMPDEST SWAP3 SWAP2 POP POP JUMP JUMPDEST PUSH0 PUSH1 0x20 DUP3 DUP5 SUB SLT ISZERO PUSH2 0xAE5 JUMPI PUSH0 DUP1 REVERT JUMPDEST DUP2 MLOAD DUP1 ISZERO ISZERO DUP2 EQ PUSH2 0xAA1 JUMPI PUSH0 DUP1 REVERT JUMPDEST PUSH1 0x20 DUP1 DUP3 MSTORE PUSH1 0xF SWAP1 DUP3 ADD MSTORE PUSH15 0x151C985B9CD9995C8819985A5B1959 PUSH1 0x8A SHL PUSH1 0x40 DUP3 ADD MSTORE PUSH1 0x60 ADD SWAP1 JUMP JUMPDEST DUP1 DUP3 MUL DUP2 ISZERO DUP3 DUP3 DIV DUP5 EQ OR PUSH2 0xACF JUMPI PUSH2 0xACF PUSH2 0xAA8 JUMP JUMPDEST PUSH0 DUP3 PUSH2 0xB4E JUMPI PUSH4 0x4E487B71 PUSH1 0xE0 SHL PUSH0 MSTORE PUSH1 0x12 PUSH1 0x4 MSTORE PUSH1 0x24 PUSH0 REVERT JUMPDEST POP DIV SWAP1 JUMP JUMPDEST DUP1 DUP3 ADD DUP1 DUP3 GT ISZERO PUSH2 0xACF JUMPI PUSH2 0xACF PUSH2 0xAA8 JUMP JUMPDEST PUSH0 PUSH1 0x20 DUP3 DUP5 SUB SLT ISZERO PUSH2 0xB76 JUMPI PUSH0 DUP1 REVERT JUMPDEST POP MLOAD SWAP2 SWAP1 POP JUMP JUMPDEST PUSH1 0x20 DUP1 DUP3 MSTORE PUSH1 0x21 SWAP1 DUP3 ADD MSTORE PUSH32 0x4F6E6C79206F776E65722063616E2063616C6C20746869732066756E6374696F PUSH1 0x40 DUP3 ADD MSTORE PUSH1 0x37 PUSH1 0xF9 SHL PUSH1 0x60 DUP3 ADD MSTORE PUSH1 0x80 ADD SWAP1 JUMP INVALID LOG2 PUSH5 0x6970667358 0x22 SLT KECCAK256 STATICCALL NOT GAS KECCAK256 PUSH3 0xA2D99B 0xE2 0xFC PUSH12 0x8A810E7CDAB01E0220770643 OR 0xB0 SIGNEXTEND 0xCF 0xDB 0xFC DUP15 0xAA 0xDD PUSH5 0x736F6C6343 STOP ADDMOD EQ STOP CALLER "
		},
		"gasEstimates": {
			"creation": {
				"codeDepositCost": "612000",
				"executionCost": "infinite",
				"totalCost": "infinite"
			},
			"external": {
				"": "321",
				"claimReward()": "infinite",
				"getCurrentRewardRate()": "infinite",
				"k()": "2317",
				"lastUpdateTime()": "2316",
				"lockupPeriod()": "2404",
				"owner()": "2392",
				"rewardPerToken()": "infinite",
				"rewardPerTokenStored()": "2360",
				"setDecayFactor(uint256)": "25621",
				"setLockupPeriod(uint256)": "25628",
				"stakeTokens(uint256)": "infinite",
				"stakers(address)": "11114",
				"testToken()": "2392",
				"totalRewardBalance()": "infinite",
				"totalStaked()": "2339",
				"unstakeTokens(uint256)": "infinite",
				"updateReward(address)": "infinite"
			}
		},
		"methodIdentifiers": {
			"claimReward()": "b88a802f",
			"getCurrentRewardRate()": "e6a4a8b5",
			"k()": "b4f40c61",
			"lastUpdateTime()": "c8f33c91",
			"lockupPeriod()": "ee947a7c",
			"owner()": "8da5cb5b",
			"rewardPerToken()": "cd3daf9d",
			"rewardPerTokenStored()": "df136d65",
			"setDecayFactor(uint256)": "b8c9059d",
			"setLockupPeriod(uint256)": "c771c390",
			"stakeTokens(uint256)": "7547c7a3",
			"stakers(address)": "9168ae72",
			"testToken()": "6895179d",
			"totalRewardBalance()": "7e2ca288",
			"totalStaked()": "817b1cd2",
			"unstakeTokens(uint256)": "608e4dd0",
			"updateReward(address)": "632447c9"
		}
	},
	"abi": [
		{
			"inputs": [
				{
					"internalType": "address payable",
					"name": "_testToken",
					"type": "address"
				}
			],
			"stateMutability": "nonpayable",
			"type": "constructor"
		},
		{
			"anonymous": false,
			"inputs": [
				{
					"indexed": false,
					"internalType": "uint256",
					"name": "newK",
					"type": "uint256"
				}
			],
			"name": "DecayFactorUpdated",
			"type": "event"
		},
		{
			"anonymous": false,
			"inputs": [
				{
					"indexed": false,
					"internalType": "uint256",
					"name": "newLockupPeriod",
					"type": "uint256"
				}
			],
			"name": "LockupPeriodUpdated",
			"type": "event"
		},
		{
			"anonymous": false,
			"inputs": [
				{
					"indexed": true,
					"internalType": "address",
					"name": "user",
					"type": "address"
				},
				{
					"indexed": false,
					"internalType": "uint256",
					"name": "reward",
					"type": "uint256"
				}
			],
			"name": "RewardClaimed",
			"type": "event"
		},
		{
			"anonymous": false,
			"inputs": [
				{
					"indexed": true,
					"internalType": "address",
					"name": "user",
					"type": "address"
				},
				{
					"indexed": false,
					"internalType": "uint256",
					"name": "amount",
					"type": "uint256"
				}
			],
			"name": "Staked",
			"type": "event"
		},
		{
			"anonymous": false,
			"inputs": [
				{
					"indexed": true,
					"internalType": "address",
					"name": "user",
					"type": "address"
				},
				{
					"indexed": false,
					"internalType": "uint256",
					"name": "amount",
					"type": "uint256"
				}
			],
			"name": "Unstaked",
			"type": "event"
		},
		{
			"stateMutability": "nonpayable",
			"type": "fallback"
		},
		{
			"inputs": [],
			"name": "claimReward",
			"outputs": [],
			"stateMutability": "nonpayable",
			"type": "function"
		},
		{
			"inputs": [],
			"name": "getCurrentRewardRate",
			"outputs": [
				{
					"internalType": "uint256",
					"name": "",
					"type": "uint256"
				}
			],
			"stateMutability": "view",
			"type": "function"
		},
		{
			"inputs": [],
			"name": "k",
			"outputs": [
				{
					"internalType": "uint256",
					"name": "",
					"type": "uint256"
				}
			],
			"stateMutability": "view",
			"type": "function"
		},
		{
			"inputs": [],
			"name": "lastUpdateTime",
			"outputs": [
				{
					"internalType": "uint256",
					"name": "",
					"type": "uint256"
				}
			],
			"stateMutability": "view",
			"type": "function"
		},
		{
			"inputs": [],
			"name": "lockupPeriod",
			"outputs": [
				{
					"internalType": "uint256",
					"name": "",
					"type": "uint256"
				}
			],
			"stateMutability": "view",
			"type": "function"
		},
		{
			"inputs": [],
			"name": "owner",
			"outputs": [
				{
					"internalType": "address",
					"name": "",
					"type": "address"
				}
			],
			"stateMutability": "view",
			"type": "function"
		},
		{
			"inputs": [],
			"name": "rewardPerToken",
			"outputs": [
				{
					"internalType": "uint256",
					"name": "",
					"type": "uint256"
				}
			],
			"stateMutability": "view",
			"type": "function"
		},
		{
			"inputs": [],
			"name": "rewardPerTokenStored",
			"outputs": [
				{
					"internalType": "uint256",
					"name": "",
					"type": "uint256"
				}
			],
			"stateMutability": "view",
			"type": "function"
		},
		{
			"inputs": [
				{
					"internalType": "uint256",
					"name": "newK",
					"type": "uint256"
				}
			],
			"name": "setDecayFactor",
			"outputs": [],
			"stateMutability": "nonpayable",
			"type": "function"
		},
		{
			"inputs": [
				{
					"internalType": "uint256",
					"name": "_newLockupPeriod",
					"type": "uint256"
				}
			],
			"name": "setLockupPeriod",
			"outputs": [],
			"stateMutability": "nonpayable",
			"type": "function"
		},
		{
			"inputs": [
				{
					"internalType": "uint256",
					"name": "_amount",
					"type": "uint256"
				}
			],
			"name": "stakeTokens",
			"outputs": [],
			"stateMutability": "nonpayable",
			"type": "function"
		},
		{
			"inputs": [
				{
					"internalType": "address",
					"name": "",
					"type": "address"
				}
			],
			"name": "stakers",
			"outputs": [
				{
					"internalType": "uint256",
					"name": "stakedAmount",
					"type": "uint256"
				},
				{
					"internalType": "uint256",
					"name": "lastUpdated",
					"type": "uint256"
				},
				{
					"internalType": "uint256",
					"name": "reward",
					"type": "uint256"
				},
				{
					"internalType": "uint256",
					"name": "lastTotalRewardsPoolAtUpdate",
					"type": "uint256"
				},
				{
					"internalType": "uint256",
					"name": "lockupEndTime",
					"type": "uint256"
				}
			],
			"stateMutability": "view",
			"type": "function"
		},
		{
			"inputs": [],
			"name": "testToken",
			"outputs": [
				{
					"internalType": "contract TESTDONOTBUY",
					"name": "",
					"type": "address"
				}
			],
			"stateMutability": "view",
			"type": "function"
		},
		{
			"inputs": [],
			"name": "totalRewardBalance",
			"outputs": [
				{
					"internalType": "uint256",
					"name": "",
					"type": "uint256"
				}
			],
			"stateMutability": "view",
			"type": "function"
		},
		{
			"inputs": [],
			"name": "totalStaked",
			"outputs": [
				{
					"internalType": "uint256",
					"name": "",
					"type": "uint256"
				}
			],
			"stateMutability": "view",
			"type": "function"
		},
		{
			"inputs": [
				{
					"internalType": "uint256",
					"name": "_amount",
					"type": "uint256"
				}
			],
			"name": "unstakeTokens",
			"outputs": [],
			"stateMutability": "nonpayable",
			"type": "function"
		},
		{
			"inputs": [
				{
					"internalType": "address",
					"name": "_user",
					"type": "address"
				}
			],
			"name": "updateReward",
			"outputs": [],
			"stateMutability": "nonpayable",
			"type": "function"
		}
	]
}